:020000040800F2
:10000000A804002045010008B5030008B703000854
:10001000BB030008BF030008C30300080000000082
:10002000000000000000000000000000C7030008FE
:10003000C903000800000000CB030008CD0300083E
:100040005F0100085F0100085F0100085F01000810
:100050005F0100085F0100085F0100085F01000800
:100060005F0100085F0100085F0100085F010008F0
:100070005F0100085F010008CF0300085F0100086E
:100080005F0100085F0100085F0100085F010008D0
:100090005F0100085F0100085F0100085F010008C0
:1000A0005F0100085F0100085F0100085F010008B0
:1000B0005F0100085F0100085F0100085F010008A0
:1000C0005F0100085F0100085F0100085F01000890
:1000D0005F010008E50300085F0100085F010008F8
:1000E0005F0100085F0100085F0100085F01000870
:1000F0005F0100085F0100085F0100085F01000860
:100100005F0100085F0100085F0100085F0100084F
:100110005F0100085F0100085F0100085F0100083F
:100120005F0100085F0100085F0100085F0100082F
:10013000DFF80CD001F016FD0048004773030008FB
:10014000A80400200648804706480047FEE7FEE76F
:10015000FEE7FEE7FEE7FEE7FEE7FEE7FEE7FEE777
:1001600047020008310100080CB500200190009002
:100170006C48006840F480306A49086000BF6948F4
:10018000006800F4003000900198401C0190009835
:1001900018B90198B0F5A06FF1D16248006800F479
:1001A000003010B10120009001E000200090009884
:1001B000012843D15C48006840F010005A490860AB
:1001C0000846006820F0030008600846006840F018
:1001D0000200086053484068524948600846406839
:1001E00048600846406840F48060486008464068BF
:1001F00020F47C1048600846406840F4E8104860ED
:100200000846006840F08070086000BF45480068FC
:1002100000F000700028F9D04248406820F0030048
:10022000404948600846406840F00200486000BF0E
:100230003C48406800F00C000828F9D10CBD10B50E
:10024000FFF792FF10BD10B53648006840F001007E
:1002500034490860084640683449084031494860DC
:1002600008460068324908402E4908600846006880
:1002700020F4802008600846406820F4FE004860B2
:100280004FF41F008860FFF7DAFF4FF00060294944
:10029000086010BD10B5002100200022214B5B68D2
:1002A00003F00C0121B1042906D0082928D107E068
:1002B000214B224C236027E01F4B204C236023E07E
:1002C000184B5B6803F47010164B5B6803F48032C4
:1002D000022303EB904022B9194B4343174C236090
:1002E0000DE0104B5B6803F4003323B1144B434320
:1002F000124C236003E0104B4343104C236003E097
:100300000D4B0E4C236000BF00BF064B5B68C3F370
:1003100003130C4CE15C094B1B68CB40074C23607A
:1003200010BD000000100240002002400000FFF855
:10033000FFFFF6FE08ED00E000127A00000000204A
:1003400000093D000400002010B500F019F900F08C
:10035000C3F800F02DFB00F035F92821032000F050
:1003600091FA00F00FFB4FF48051104800F0D3FCDD
:1003700010BD70B5FFF7E8FF00F065FA012800D165
:1003800001250FE00A4800F032FA04462CB14FF480
:100390008051064800F0C1FC04E04FF4805103484E
:1003A00000F0B9FC002DEDD1002070BD0018014017
:1003B00062000020704700BFFEE700BFFEE700BFFD
:1003C000FEE700BFFEE7704770477047704710B503
:1003D0004FF4005001F084FB012802D1400301F0EA
:1003E00093FB10BD10B540F22551364801F07AF864
:1003F000002865D03348001D0088C4B2AA2C0BD158
:100400003148007840B9304801780078401C2E4AC5
:1004100010702E48445453E0AF2C0CD12A48007879
:10042000012808D1284801780078401C264A10701D
:100430002648445444E0102C0CD12348007802286C
:1004400008D1214801780078401C1F4A10701F48CD
:10045000445435E01C480078032808D11A48017834
:100460000078401C184A10701848445428E0164878
:100470000078032821DD14480078001F1349C9784B
:10048000884208DC104801780078401C0E4A107041
:100490000E48445414E0002004E00C49095C0C4A66
:1004A0001154401C084909788842F6DB01200949AB
:1004B000087000200449087002E00020024908701A
:1004C00010BD00000038014015000020340000205D
:1004D0004B0000201400002000B585B0012144F23B
:1004E000040001F0B1F94FF40070ADF810001820CD
:1004F0008DF8130003208DF8120004A91E4800F0A7
:100500005DFB4FF48060ADF8100004208DF81300FF
:1005100004A9194800F052FB4FF4E130009000208C
:10052000ADF80400ADF80600ADF80800ADF80C0019
:100530000C20ADF80A006946104800F056FE012272
:1005400040F225510D4800F0E8FE01210B4800F073
:10055000D8FE05B000BD70B504460D46E1B20748AF
:1005600000F03CFF00BF0548008800F08000002834
:10057000F9D0204670BD000000080140003801405D
:1005800008B54FF4E06000F04BFA25208DF800002C
:1005900000208DF801008DF8020001208DF8030085
:1005A000684600F042FA0E208DF8000000208DF819
:1005B000010001208DF802008DF80300684600F06C
:1005C00034FA08BD00B587B00121042001F03CF9E0
:1005D0000121802001F038F90121080301F034F9EC
:1005E000E020ADF8040001208DF8060018208DF8F9
:1005F000070001A92E4800F0E1FA0120ADF804003F
:100600008DF8060010208DF8070001A9294800F098
:10061000D5FA1020ADF8040001208DF80600102056
:100620008DF8070001A9224800F0C8FA10212048DF
:1006300000F071FB0020ADF808004FF48270ADF8B7
:100640000A000020ADF80C00ADF80E00ADF8100067
:100650004FF40070ADF812001020ADF81400002027
:10066000ADF816000720ADF8180002A9124800F0F6
:1006700019FC0121104800F0BAFC07B000BD10B50C
:10068000044600BF02210C4800F035FD0028F9D0D7
:100690002146094800F0DCFC00BF0121064800F0BB
:1006A0002AFD0028F9D0044800F0D4FCC0B210BDE7
:1006B00000080140001C01400030014070B50546B3
:1006C0000C460121AB4800F028FB1021AA4800F09D
:1006D00024FB2846FFF7D3FF06462046FFF7CFFF4F
:1006E0001021A54800F017FB304670BD70B50446D8
:1006F0000121A04800F011FB10219F4800F00DFBE4
:100700002046FFF7BCFF0020FFF7B9FF0546102188
:10071000994800F000FB284670BD2DE9F0410746DE
:100720000D4616460121934800F0F7FA1021924831
:1007300000F0F3FA3846FFF7A2FF8046002404E0F9
:10074000285DFFF79CFF601CC4B2B442F8DB1021A7
:10075000894800F0E0FA4046BDE8F0812DE9F0411B
:1007600007460D4616460121824800F0D6FA1021B0
:10077000814800F0D2FA3846FFF781FF8046002416
:1007800005E00020FFF77BFF2855601CC4B2B4428F
:10079000F7DB1021784800F0BEFA4046BDE8F08152
:1007A00070B504460D460121724800F0B6FA0522E4
:1007B00072492A20FFF7B1FF2A462146A020FFF701
:1007C000ACFF01216B4800F0A6FA70BD70B504467D
:1007D0000D460121674800F0A0FA2A462146A820CC
:1007E000FFF79BFF0121634800F095FA70BD70B5DB
:1007F000054601215F4800F08EFA002000E0401C11
:10080000B0F57A7FFBDB01215A4800F086FA072019
:10081000FFF76CFF0446002621462720FFF74EFF16
:1008200004F0400068B10121524800F076FA20221D
:1008300029466120FFF792FF0021E220FFF73EFFEB
:100840000126304670BD1CB505224C493020FFF70B
:1008500064FF052269461020FFF780FF002408E0AE
:100860001DF804004549095D884200D003E0601C82
:10087000C4B2052CF4DB00BF052C01D101201CBD46
:100880000020FCE770B504460D460121394800F010
:1008900044FA05223A492A20FFF73FFF052237494B
:1008A0003020FFF73AFF01212120FFF707FF012148
:1008B0002220FFF703FF1A212420FFF7FFFE282143
:1008C0002520FFF7FBFE0F212620FFF7F7FE012C66
:1008D00008D120213120FFF7F1FE0F212020FFF762
:1008E000EDFE41E0022C08D120213120FFF7E6FE89
:1008F0000E212020FFF7E2FE36E0032C1AD1FF2163
:10090000E120FFF7DBFEFF21E220FFF7D7FE0F21FA
:100910002020FFF7D3FE5020FFF7B1FE7320FFF732
:10092000AEFE01213C20FFF7C9FE06213D20FFF766
:10093000C5FE19E00E212020FFF7C0FEFF21E120B7
:10094000FFF7BCFEFF21E220FFF7B8FE5020FFF7C3
:1009500096FE7320FFF793FE01213C20FFF7AEFEC9
:1009600006213D20FFF7AAFE0121024800F0D3F93D
:1009700070BD0000001C014000080140160000206E
:100980001B00002008B50121402000F05DFF102071
:100990008DF803000002ADF8000003208DF802007E
:1009A0006946024800F00AF908BD0000001801403D
:1009B00000B58BB00121084600F039FF20200390DC
:1009C0001020029000200A90124801900020079009
:1009D00080200590202008900F480090002006906D
:1009E00004904FF40050099069460C4801F032F829
:1009F000012280210848001F00F0B4FC01220221DE
:100A0000064801F05EF80121044801F04EF80BB0F1
:100A100000BD000062000020043801404400024094
:100A200031490143314A1160704770B500210023FC
:100A30000F22C47804B32D4C246804F4E064C4F598
:100A4000E064210AC1F10403CA40447804FA03F1C6
:100A50008478144021430901254C0678A155047877
:100A600004F01F050124AC4005786D11AD0005F1BF
:100A7000E025C5F8004109E0047804F01F050124D1
:100A8000AC401C4D0678761145F8264070BD1A4AD8
:100A90000A400243154B1B1F1A60704739B1134AB5
:100AA000121D12680243114B1B1D1A6006E00F4A0B
:100AB000121D126882430D4B1B1D1A6070470428DB
:100AC00008D14FF0E021096941F004014FF0E02224
:100AD000116107E04FF0E021096921F004014FF0B6
:100AE000E0221161704700000000FA050CED00E003
:100AF00000E400E080E100E080FFFF1F10B5044645
:100B0000CC48844208D10121042000F0B7FE002126
:100B1000042000F0B3FE46E0C748844208D101211A
:100B2000082000F0ABFE0021082000F0A7FE3AE00C
:100B3000C248844208D10121102000F09FFE00210C
:100B4000102000F09BFE2EE0BD48844208D1012118
:100B5000202000F093FE0021202000F08FFE22E0F4
:100B6000B848844208D10121402000F087FE0021CE
:100B7000402000F083FE16E0B348844208D10121F2
:100B8000802000F07BFE0021802000F077FE0AE04C
:100B9000AE48844207D10121801500F06FFE00218C
:100BA000A01500F06BFE10BD10B50121084600F045
:100BB00065FE0021012000F061FE10BD2DE9F0412D
:100BC000024600250026002000230024002791F87B
:100BD00003C00CF00F0591F803C00CF0100CBCF131
:100BE000000F03D091F802C04CEA050591F800C04F
:100BF000BCF1000F31D0146800202BE04FF0010C45
:100C00000CFA00F3B1F800C00CEA03069E4220D1B2
:100C100083004FF00F0C0CFA03F7BC4305FA03FCFA
:100C20004CEA040491F803C0BCF1280F06D14FF040
:100C3000010C0CFA00FCC2F814C00AE091F803C0E1
:100C4000BCF1480F05D14FF0010C0CFA00FCC2F8C2
:100C500010C0401C0828D1D31460B1F800C0BCF10A
:100C6000FF0F34DD546800202EE000F1080C4FF037
:100C7000010808FA0CF3B1F800C00CEA03069E4222
:100C800021D183004FF00F0C0CFA03F7BC4305FA97
:100C900003FC4CEA040491F803C0BCF1280F05D111
:100CA00000F1080C08FA0CF8C2F8148091F803C09F
:100CB000BCF1480F07D100F1080C4FF0010808FA09
:100CC0000CF8C2F81080401C0828CED35460BDE850
:100CD000F0814FF6FF710180022181700421C17003
:100CE00070470246002093680B400BB1012000E0E2
:100CF000002070470146886880B270470246002095
:100D0000D3680B400BB1012000E000207047014682
:100D1000C86880B2704701617047416170470AB18D
:100D2000016100E041617047C16070474FF480325B
:100D30000A438261816182618269826970470246E9
:100D40000020434B18684FF68073184040EA0210A9
:100D500008433F4B186070473E49C8617047F0B583
:100D60000A46002300240021002500F00046B6F1C9
:100D7000004F02D1364EF16901E0354E7168C0F383
:100D8000034583B200F44016B6F5401F08D121F0A8
:100D900070612F4E766826F070662D4F7E6012E0EF
:100DA00000F48016B6F5801F06D1032606FA05F476
:100DB000A14341F0706106E0460D360103FA06F6E4
:100DC000B14341F0706122B1460D360103FA06F6D7
:100DD000314300F00046B6F1004F02D11C4EF161E4
:100DE00001E01B4E7160F0BD30B500228B071C0F77
:100DF0000F2303FA04F2164B08338C1053F82430F7
:100E00009343134C08348D1044F8253023468C103E
:100E100053F824308C07240F00FA04F423430C4CBD
:100E200008348D1044F8253030BD0A49DC310860A3
:100E30007047000000080140000C01400010014014
:100E40000014014000180140001C01400020014036
:100E5000000001400000204210B50446BE48844214
:100E600008D10121801400F009FD0021A01400F038
:100E700005FD16E0B948844208D10121001400F0B4
:100E80000AFD0021201400F006FD0AE0B448844267
:100E900007D10121C01300F0FEFC0021E01300F097
:100EA000FAFC10BD10B50022028802F441520B88F2
:100EB0004C8823438C882343CC8823430C892343C9
:100EC0004C8923438C892343CC8923431A430280D2
:100ED000838B4FF2FF74234083830B8A038210BD00
:100EE0002DE9F04F85B005460C464FF0000902276A
:100EF0004FF000084FF0010B0026B246A88B4FF2CE
:100F000040010840A88302202884B5F81C90A068FE
:100F1000022801D100BF38E0A08810B94FF0010BC2
:100F200001E04FF0020B8D48854200D100E000BF88
:100F3000684600F01CFCDDF800A0E088B0F5007FFA
:100F40000AD14FEA1A2000EB80004000A168B0FBF4
:100F5000F1F0401D86B20BE04FEA4B10BAFBF0F007
:100F600000EB80004000A168B0FBF1F0401D86B2AC
:100F70000A20B6FBF0F606F00108A6EB0800C0F365
:100F80004F074FF6FF7000EA0828022F01DBFF2F02
:100F900002DD02274FF00008E08840EA08003843ED
:100FA0002884A088A18908436188084321880843D0
:100FB00040F4006040EA0909A5F81C9005B0BDE8BE
:100FC000F08F0021018041808180C18001814181B9
:100FD0008181C18107210182704700210180418008
:100FE0008180C1800221816000218181704721B10F
:100FF000028842F04002028004E002884FF6BF738C
:101000001A400280704721B1828B42F48062828351
:1010100004E0828B4FF6FF331A408283704730B56D
:10102000002400230C110125A540ABB21AB185881C
:101030001D43858002E085889D43858030BD1AB1BF
:1010400083880B43838002E083888B4383807047CF
:10105000818170470146888970474FF6FF6291424F
:1010600004D0028842F48072028004E002884FF6C5
:10107000FF631A400280704721B1828842F0040267
:10108000828004E082884FF6FB731A4082807047AA
:1010900002884FF2FF731A40028002880A430280DE
:1010A0007047018841F480510180704721B1028866
:1010B00042F40052028004E002884DF6FF731A40A9
:1010C0000280704702460020012901D0108B00E009
:1010D000908A70470146088A7047B1F5804F04D165
:1010E000028842F48042028004E002884BF6FF73DB
:1010F0001A40028070470246002013890B400BB152
:10110000012000E000207047CA4302817047F0B51B
:101110000246002000240023002501F00F070126CD
:10112000BE40B4B20B1101269E40B3B2968806EAC7
:1011300003051689264016B10DB1012000E00020FC
:10114000F0BD10B5002201F00F040123A3409AB2B4
:10115000D343038110BD000000300140003800403F
:10116000003C004010B50446FB48844209D10121EF
:10117000880300F083FB00214FF4804000F07EFBE9
:1011800032E0F648844209D10121480400F083FB93
:1011900000214FF4003000F07EFB25E0F04884424F
:1011A00009D10121880400F076FB00214FF4802052
:1011B00000F071FB18E0EB48844209D10121C8041A
:1011C00000F069FB00214FF4002000F064FB0BE00D
:1011D000E548844208D10121080500F05CFB0021AC
:1011E0004FF4801000F057FB10BD2DE9F04786B09A
:1011F00005460E460024A24600BFA1460027B0893E
:1012000000B100BF2F462C8A4CF6FF700440F088D6
:1012100004432C82AC894EF6F3100440B088318927
:101220000843718908430443AC81AC8A4FF6FF4000
:101230000440B0890443AC8201A800F098FAC64883
:10124000874202D1DDF810A001E0DDF80CA0A889EA
:1012500000F4004040B10AEBCA0000EB0A1031680C
:101260004900B0FBF1F807E00AEBCA0000EB0A10F6
:1012700031688900B0FBF1F86420B8FBF0F004019C
:101280002009642101FB1089A88900F4004040B1C5
:10129000322000EBC900B0FBF1F000F0070004437E
:1012A00008E0322000EB09106421B0FBF1F000F0FF
:1012B0000F0004432C8106B0BDE8F0874FF41651AF
:1012C000016000218180C18001810C2141810021C8
:1012D0008181704710B502460020108A4FF2FF034B
:1012E00018400B884C8823438C882343CC882343A5
:1012F0001843108210BD0021018041808180C1808F
:10130000704721B1828942F40052828104E08289CF
:101310004DF6FF731A4082817047F0B503460024F2
:1013200000260025002040F66A17B94200D100BF10
:101330001846C1F3421401F01F06012707FA06F50B
:10134000012C01D10C3004E0022C01D1103000E05E
:1013500014301AB107682F43076002E00768AF43F3
:101360000760F0BD1AB1838A0B43838202E0838A4F
:101370008B4383827047028A4FF6F0731A400282D1
:10138000028A0A430282704782894FF2FF731A4031
:10139000828182890A438281704721B1828942F029
:1013A0000202828104E082894FF6FD731A40828135
:1013B0007047028A4FF6DF731A400282028A0A439C
:1013C0000282704721B1028A42F48042028204E024
:1013D000028A4BF6FF731A4002827047C1F308027B
:1013E0008280704701468888C0F308007047818971
:1013F00041F0010181817047028BD2B20283028BDE
:1014000042EA012202837047028B02F47F42028388
:10141000028B0A430283704721B1828A42F0200284
:10142000828204E0828A4FF6DF731A40828270471C
:1014300021B1828A42F01002828204E0828A4FF651
:10144000EF731A408282704721B1828A42F008020B
:10145000828204E0828A4FF6F7731A4082827047D4
:1014600021B1828942F40042828103E08289C2F381
:101470000E028281704721B1828A42F40062828228
:1014800004E0828A4FF2FF731A4082827047828A98
:101490004FF6FB731A408282828A0A438282704727
:1014A00021B1828A42F00202828204E0828A4FF6EF
:1014B000FD731A408282704702460020B1F5007F1A
:1014C00000D100BF13880B400BB1012000E00020C9
:1014D000704701F40072B2F5007F00D100BFCA432B
:1014E0000280704770B502460024002300250020CA
:1014F00040F66A16B14200D100BFC1F3421501F0B7
:101500001F03012606FA03F3012D02D19689334009
:1015100006E0022D02D1168A334001E0968A33405C
:101520000C12012606FA04F41688344013B10CB1EB
:10153000012000E0002070BD10B50022002340F61D
:101540006A14A14200D100BF0A1201249440A3B240
:10155000DC43048010BD000000380140004400401E
:1015600000480040004C004000500040DF48006848
:1015700040F00100DD49086008464068DC49084049
:10158000DA49486008460068DA490840D7490860E7
:101590000846006820F4802008600846406820F46F
:1015A000FE0048604FF41F0088607047CF4909680B
:1015B00021F48031CD4A11601146096821F480215F
:1015C0001160B0F5803F03D0B0F5802F0ED106E05A
:1015D000C649096841F48031C44A116007E0C34933
:1015E000096841F4A021C14A116000E000BF00BFBA
:1015F000704710B501460022002300204A11012A3D
:1016000002D1BA4C236806E0022A02D1B74C236A01
:1016100001E0B64C636A01F01F02012494401C40B3
:101620000CB1012000E0002010BD38B50020009072
:101630000024002500BF3120FFF7DBFF054600989E
:10164000401C00900098B0F5A06F01D0002DF2D0A2
:101650003120FFF7CEFF08B1012400E0002420462E
:1016600038BD01460020A14A106820F0F80040EA89
:10167000C10010607047A049086070470246002012
:101680009A4B586820F47C1042EA01031843974BA8
:101690005860704798490866704701460020934A91
:1016A000506820F003000843506070478F4840683E
:1016B00000F00C007047014600208C4A506820F072
:1016C000F00008435060704701460020874A506888
:1016D00020F4E06008435060704701460020834AD0
:1016E000506820F4605040EAC1005060704729B152
:1016F0007E4A527A02437D4B5A7204E07B4A527A08
:1017000082437A4B5A7270477B49D83108607047E0
:1017100001460020754A506820F44040084350605C
:1017200070470021714A20321170704A82F82010EF
:10173000012802D004280AD104E001216B4A20329A
:10174000117005E00521694A2032117000E000BFE8
:1017500000BF70476949086070476449096A0143DE
:10176000624A11627047654944390860704730B574
:1017700000210022002400235C4D6D6805F00C015F
:1017800021B1042905D0082923D105E05C4D05606D
:1017900022E05B4D05601FE0544D6D6805F470124A
:1017A000524D6D6805F48034022505EB92421CB958
:1017B000544D554305600BE04C4D6D6805F4003504
:1017C0001DB1504D5543056002E04D4D5543056038
:1017D00002E04B4D056000BF00BF444D6D6805F051
:1017E000F0010909484D6B5C0568DD4045603F4DDF
:1017F0006D6805F4E061090A434D6B5C4568DD40A6
:1018000085603A4D6D6805F46051C90A3E4D6B5CC8
:101810004568DD40C560354D6D6805F44041890B74
:101820003A4D6B5CC568B5FBF3F5056130BD29B178
:101830002E4A526902432D4B5A6104E02B4A5269E9
:1018400082432A4B5A61704729B1284A9269024360
:10185000264B9A6104E0254A92698243234B9A61A0
:10186000704729B1214AD2690243204BDA6104E072
:101870001E4AD26982431D4BDA61704729B11B4A67
:10188000D2680243194BDA6004E0184AD2688243F6
:10189000164BDA60704729B1144A12690243134BA0
:1018A0001A6104E0114A12698243104B1A617047B1
:1018B00012494039086070470F49C86470470B49A6
:1018C000C87170470948406A40F080700749486213
:1018D000704701460020054A92680A400AB101207B
:1018E00000E00020704701498872704700100240F4
:1018F0000000FFF8FFFFF6FE000042428004424273
:1019000000127A0000093D00200000203000002075
:1019100001684FF6FE7211400160002101604160D4
:101920008160C1608D49884208D18C490839496875
:1019300041F00F01894A083A51608AE08749143121
:10194000884208D185490839496841F0F001834A45
:10195000083A51607DE081492831884208D17F49A9
:101960000839496841F470617C4A083A516070E076
:101970007A493C31884208D178490839496841F4AC
:101980007041764A083A516063E0744950318842A8
:1019900008D172490839496841F470216F4A083A00
:1019A000516056E06D496431884208D16B4908396D
:1019B000496841F47001694A083A516049E0674951
:1019C0007831884208D165490839496841F0706129
:1019D000624A083A51603CE06149884206D1011FE1
:1019E000096841F00F01021F116032E05C491431B7
:1019F000884208D15A49091F096841F0F001584A44
:101A0000121F116025E056492831884208D15449F7
:101A1000091F096841F47061514A121F116018E0F2
:101A20004F493C31884208D14D49091F096841F4AA
:101A300070414B4A121F11600BE0494950318842F6
:101A400007D14749091F096841F47021444A121F10
:101A50001160704710B50022026847F6F0739A4390
:101A60000C6A8B6823430C6923434C6923438C69BC
:101A70002343CC6923434C6A23438C6A23431A4390
:101A80000260CB6843600B6883604B68C36010BD25
:101A90000021016041608160C1600161416181613B
:101AA000C161016241628162704721B1026842F006
:101AB0000102026004E002684FF6FE731A40026001
:101AC00070471AB103680B43036002E003688B435D
:101AD00003607047416070470146486880B27047B4
:101AE00001460020002201F080531BB11C4B083B33
:101AF0001A6802E0194B083B1A6802EA01030BB1AD
:101B0000012000E00020704700F0805119B1144915
:101B1000091F086002E01149083948607047014612
:101B20000020002201F080531BB10D4B083B1A68C6
:101B300002E00A4B083B1A6802EA01030BB10120DC
:101B400000E00020704700F0805119B10449091FDE
:101B5000086002E001490839486070470800024007
:101B600008040240064C074D06E0E06840F001031F
:101B700094E8070098471034AC42F6D3FEF7DCFA3D
:101B8000A81B0008C81B000802E008C8121F08C1F3
:101B9000002AFAD170477047002001E001C1121FEE
:101BA000002AFBD170470000C81B0008000000207D
:101BB00034000000881B0008FC1B000834000020D3
:101BC00074040000981B000800A24A0400000000F2
:101BD0000000000001020304060708090000E1E21A
:101BE000E3E4E5E1E2E3E4E50000000001020304D0
:0C1BF000010203040607080902040608AD
:0400000508000131BD
:00000001FF
